{
  "_format": "hh-sol-artifact-1",
  "contractName": "MerkleDistributor",
  "sourceName": "contracts/MerkleDistributor.sol",
  "abi": [
    {
      "inputs": [
        {
          "internalType": "address",
          "name": "token_",
          "type": "address"
        },
        {
          "internalType": "bytes32",
          "name": "merkleRoot_",
          "type": "bytes32"
        },
        {
          "internalType": "uint256",
          "name": "dropAmount_",
          "type": "uint256"
        }
      ],
      "stateMutability": "nonpayable",
      "type": "constructor"
    },
    {
      "anonymous": false,
      "inputs": [
        {
          "indexed": true,
          "internalType": "address",
          "name": "_from",
          "type": "address"
        },
        {
          "indexed": false,
          "internalType": "uint256",
          "name": "_dropAmount",
          "type": "uint256"
        }
      ],
      "name": "Claimed",
      "type": "event"
    },
    {
      "inputs": [
        {
          "internalType": "bytes32[]",
          "name": "merkleProof",
          "type": "bytes32[]"
        }
      ],
      "name": "claim",
      "outputs": [],
      "stateMutability": "nonpayable",
      "type": "function"
    },
    {
      "inputs": [],
      "name": "dropAmount",
      "outputs": [
        {
          "internalType": "uint256",
          "name": "",
          "type": "uint256"
        }
      ],
      "stateMutability": "view",
      "type": "function"
    },
    {
      "inputs": [],
      "name": "merkleRoot",
      "outputs": [
        {
          "internalType": "bytes32",
          "name": "",
          "type": "bytes32"
        }
      ],
      "stateMutability": "view",
      "type": "function"
    },
    {
      "inputs": [],
      "name": "token",
      "outputs": [
        {
          "internalType": "address",
          "name": "",
          "type": "address"
        }
      ],
      "stateMutability": "view",
      "type": "function"
    }
  ],
  "bytecode": "0x60c06040523480156200001157600080fd5b5060405162000baa38038062000baa833981810160405281019062000037919062000163565b8273ffffffffffffffffffffffffffffffffffffffff1660808173ffffffffffffffffffffffffffffffffffffffff16815250508160a0818152505080600081905550505050620001bf565b600080fd5b600073ffffffffffffffffffffffffffffffffffffffff82169050919050565b6000620000b58262000088565b9050919050565b620000c781620000a8565b8114620000d357600080fd5b50565b600081519050620000e781620000bc565b92915050565b6000819050919050565b6200010281620000ed565b81146200010e57600080fd5b50565b6000815190506200012281620000f7565b92915050565b6000819050919050565b6200013d8162000128565b81146200014957600080fd5b50565b6000815190506200015d8162000132565b92915050565b6000806000606084860312156200017f576200017e62000083565b5b60006200018f86828701620000d6565b9350506020620001a28682870162000111565b9250506040620001b5868287016200014c565b9150509250925092565b60805160a0516109b8620001f26000396000818160cf01526101e501526000818161028f01526103d201526109b86000f3fe608060405234801561001057600080fd5b506004361061004c5760003560e01c806305748be2146100515780632eb4a7ab1461006f578063b391c5081461008d578063fc0c546a146100a9575b600080fd5b6100596100c7565b60405161006691906104bc565b60405180910390f35b6100776100cd565b60405161008491906104f0565b60405180910390f35b6100a760048036038101906100a2919061057a565b6100f1565b005b6100b16103d0565b6040516100be9190610608565b60405180910390f35b60005481565b7f000000000000000000000000000000000000000000000000000000000000000081565b6000600160003373ffffffffffffffffffffffffffffffffffffffff1673ffffffffffffffffffffffffffffffffffffffff1681526020019081526020016000205414610173576040517f08c379a000000000000000000000000000000000000000000000000000000000815260040161016a906106a6565b60405180910390fd5b600033604051602001610186919061070e565b60405160208183030381529060405280519060200120905061020a838380806020026020016040519081016040528093929190818152602001838360200280828437600081840152601f19601f820116905080830192505050505050507f0000000000000000000000000000000000000000000000000000000000000000836103f4565b610249576040517f08c379a00000000000000000000000000000000000000000000000000000000081526004016102409061079b565b60405180910390fd5b60018060003373ffffffffffffffffffffffffffffffffffffffff1673ffffffffffffffffffffffffffffffffffffffff168152602001908152602001600020819055507f000000000000000000000000000000000000000000000000000000000000000073ffffffffffffffffffffffffffffffffffffffff1663a9059cbb336000546040518363ffffffff1660e01b81526004016102ea9291906107bb565b602060405180830381600087803b15801561030457600080fd5b505af1158015610318573d6000803e3d6000fd5b505050506040513d601f19601f8201168201806040525081019061033c919061081c565b61037b576040517f08c379a0000000000000000000000000000000000000000000000000000000008152600401610372906108bb565b60405180910390fd5b3373ffffffffffffffffffffffffffffffffffffffff167fd8138f8a3f377c5259ca548e70e4c2de94f129f5a11036a15b69513cba2b426a6000546040516103c391906104bc565b60405180910390a2505050565b7f000000000000000000000000000000000000000000000000000000000000000081565b600082610401858461040b565b1490509392505050565b60008082905060005b84518110156104565761044182868381518110610434576104336108db565b5b6020026020010151610461565b9150808061044e90610939565b915050610414565b508091505092915050565b600081831061047957610474828461048c565b610484565b610483838361048c565b5b905092915050565b600082600052816020526040600020905092915050565b6000819050919050565b6104b6816104a3565b82525050565b60006020820190506104d160008301846104ad565b92915050565b6000819050919050565b6104ea816104d7565b82525050565b600060208201905061050560008301846104e1565b92915050565b600080fd5b600080fd5b600080fd5b600080fd5b600080fd5b60008083601f84011261053a57610539610515565b5b8235905067ffffffffffffffff8111156105575761055661051a565b5b6020830191508360208202830111156105735761057261051f565b5b9250929050565b600080602083850312156105915761059061050b565b5b600083013567ffffffffffffffff8111156105af576105ae610510565b5b6105bb85828601610524565b92509250509250929050565b600073ffffffffffffffffffffffffffffffffffffffff82169050919050565b60006105f2826105c7565b9050919050565b610602816105e7565b82525050565b600060208201905061061d60008301846105f9565b92915050565b600082825260208201905092915050565b7f4d65726b6c654469737472696275746f723a2044726f7020616c72656164792060008201527f636c61696d65642e000000000000000000000000000000000000000000000000602082015250565b6000610690602883610623565b915061069b82610634565b604082019050919050565b600060208201905081810360008301526106bf81610683565b9050919050565b60008160601b9050919050565b60006106de826106c6565b9050919050565b60006106f0826106d3565b9050919050565b610708610703826105e7565b6106e5565b82525050565b600061071a82846106f7565b60148201915081905092915050565b7f4d65726b6c654469737472696275746f723a20496e76616c69642070726f6f6660008201527f2e00000000000000000000000000000000000000000000000000000000000000602082015250565b6000610785602183610623565b915061079082610729565b604082019050919050565b600060208201905081810360008301526107b481610778565b9050919050565b60006040820190506107d060008301856105f9565b6107dd60208301846104ad565b9392505050565b60008115159050919050565b6107f9816107e4565b811461080457600080fd5b50565b600081519050610816816107f0565b92915050565b6000602082840312156108325761083161050b565b5b600061084084828501610807565b91505092915050565b7f4d65726b6c654469737472696275746f723a205472616e73666572206661696c60008201527f65642e0000000000000000000000000000000000000000000000000000000000602082015250565b60006108a5602383610623565b91506108b082610849565b604082019050919050565b600060208201905081810360008301526108d481610898565b9050919050565b7f4e487b7100000000000000000000000000000000000000000000000000000000600052603260045260246000fd5b7f4e487b7100000000000000000000000000000000000000000000000000000000600052601160045260246000fd5b6000610944826104a3565b91507fffffffffffffffffffffffffffffffffffffffffffffffffffffffffffffffff8214156109775761097661090a565b5b60018201905091905056fea264697066735822122094c4a635f3803c4d9701d7cb38357bb10f6b6bac25a47f982e6d462ca642eeba64736f6c63430008090033",
  "linkReferences": {},
  "deployedLinkReferences": {}
}