{
  "_format": "hh-sol-artifact-1",
  "contractName": "MerkleDistributor",
  "sourceName": "contracts/MerkleDistributor.sol",
  "abi": [
    {
      "inputs": [
        {
          "internalType": "address",
          "name": "token_",
          "type": "address"
        },
        {
          "internalType": "bytes32",
          "name": "merkleRoot_",
          "type": "bytes32"
        },
        {
          "internalType": "uint256",
          "name": "dropAmount_",
          "type": "uint256"
        }
      ],
      "stateMutability": "nonpayable",
      "type": "constructor"
    },
    {
      "anonymous": false,
      "inputs": [
        {
          "indexed": true,
          "internalType": "address",
          "name": "_from",
          "type": "address"
        },
        {
          "indexed": false,
          "internalType": "uint256",
          "name": "_dropAmount",
          "type": "uint256"
        }
      ],
      "name": "Claimed",
      "type": "event"
    },
    {
      "inputs": [
        {
          "internalType": "bytes32[]",
          "name": "merkleProof",
          "type": "bytes32[]"
        }
      ],
      "name": "claim",
      "outputs": [],
      "stateMutability": "nonpayable",
      "type": "function"
    },
    {
      "inputs": [],
      "name": "dropAmount",
      "outputs": [
        {
          "internalType": "uint256",
          "name": "",
          "type": "uint256"
        }
      ],
      "stateMutability": "view",
      "type": "function"
    },
    {
      "inputs": [],
      "name": "merkleRoot",
      "outputs": [
        {
          "internalType": "bytes32",
          "name": "",
          "type": "bytes32"
        }
      ],
      "stateMutability": "view",
      "type": "function"
    },
    {
      "inputs": [],
      "name": "token",
      "outputs": [
        {
          "internalType": "address",
          "name": "",
          "type": "address"
        }
      ],
      "stateMutability": "view",
      "type": "function"
    }
  ],
  "bytecode": "0x60c060405234801561001057600080fd5b506040516105f33803806105f383398101604081905261002f91610048565b6001600160a01b0390921660805260a05260005561008b565b60008060006060848603121561005d57600080fd5b83516001600160a01b038116811461007457600080fd5b602085015160409095015190969495509392505050565b60805160a0516105376100bc60003960008181607201526101c901526000818160ae015261028501526105376000f3fe608060405234801561001057600080fd5b506004361061004c5760003560e01c806305748be2146100515780632eb4a7ab1461006d578063b391c50814610094578063fc0c546a146100a9575b600080fd5b61005a60005481565b6040519081526020015b60405180910390f35b61005a7f000000000000000000000000000000000000000000000000000000000000000081565b6100a76100a236600461042b565b6100e8565b005b6100d07f000000000000000000000000000000000000000000000000000000000000000081565b6040516001600160a01b039091168152602001610064565b336000908152600160205260409020541561015b5760405162461bcd60e51b815260206004820152602860248201527f4d65726b6c654469737472696275746f723a2044726f7020616c72656164792060448201526731b630b4b6b2b21760c11b60648201526084015b60405180910390fd5b6040516bffffffffffffffffffffffff193360601b1660208201526000906034016040516020818303038152906040528051906020012090506101f48383808060200260200160405190810160405280939291908181526020018383602002808284376000920191909152507f000000000000000000000000000000000000000000000000000000000000000092508591506103969050565b61024a5760405162461bcd60e51b815260206004820152602160248201527f4d65726b6c654469737472696275746f723a20496e76616c69642070726f6f666044820152601760f91b6064820152608401610152565b336000818152600160208190526040808320919091559054905163a9059cbb60e01b8152600481019290925260248201526001600160a01b037f0000000000000000000000000000000000000000000000000000000000000000169063a9059cbb90604401602060405180830381600087803b1580156102c957600080fd5b505af11580156102dd573d6000803e3d6000fd5b505050506040513d601f19601f8201168201806040525081019061030191906104a0565b6103595760405162461bcd60e51b815260206004820152602360248201527f4d65726b6c654469737472696275746f723a205472616e73666572206661696c60448201526232b21760e91b6064820152608401610152565b60005460405190815233907fd8138f8a3f377c5259ca548e70e4c2de94f129f5a11036a15b69513cba2b426a9060200160405180910390a2505050565b6000826103a385846103ac565b14949350505050565b600081815b84518110156103f1576103dd828683815181106103d0576103d06104c2565b60200260200101516103f9565b9150806103e9816104d8565b9150506103b1565b509392505050565b6000818310610415576000828152602084905260409020610424565b60008381526020839052604090205b9392505050565b6000806020838503121561043e57600080fd5b823567ffffffffffffffff8082111561045657600080fd5b818501915085601f83011261046a57600080fd5b81358181111561047957600080fd5b8660208260051b850101111561048e57600080fd5b60209290920196919550909350505050565b6000602082840312156104b257600080fd5b8151801515811461042457600080fd5b634e487b7160e01b600052603260045260246000fd5b60006000198214156104fa57634e487b7160e01b600052601160045260246000fd5b506001019056fea2646970667358221220f3acd0a42116d1a26a350b8e6038f8169688172f46ad1eaa85e6515174cdad5c64736f6c63430008090033",
  "linkReferences": {},
  "deployedLinkReferences": {}
}